{
  "contractName": "SimpleStorage",
  "abi": [
    {
      "constant": true,
      "inputs": [],
      "name": "data",
      "outputs": [
        {
          "name": "",
          "type": "string"
        }
      ],
      "payable": false,
      "stateMutability": "view",
      "type": "function"
    },
    {
      "constant": false,
      "inputs": [
        {
          "name": "x",
          "type": "string"
        }
      ],
      "name": "set",
      "outputs": [],
      "payable": false,
      "stateMutability": "nonpayable",
      "type": "function"
    }
  ],
  "bytecode": "0x60806040526040805190810160405280600b81526020017f48656c6c6f20576f726c640000000000000000000000000000000000000000008152506000908051906020019061004f929190610062565b5034801561005c57600080fd5b50610107565b828054600181600116156101000203166002900490600052602060002090601f016020900481019282601f106100a357805160ff19168380011785556100d1565b828001600101855582156100d1579182015b828111156100d05782518255916020019190600101906100b5565b5b5090506100de91906100e2565b5090565b61010491905b808211156101005760008160009055506001016100e8565b5090565b90565b6102d3806101166000396000f30060806040526004361061004c576000357c0100000000000000000000000000000000000000000000000000000000900463ffffffff1680634ed3885e1461005157806373d4a13a146100ba575b600080fd5b34801561005d57600080fd5b506100b8600480360381019080803590602001908201803590602001908080601f016020809104026020016040519081016040528093929190818152602001838380828437820191505050505050919291929050505061014a565b005b3480156100c657600080fd5b506100cf610164565b6040518080602001828103825283818151815260200191508051906020019080838360005b8381101561010f5780820151818401526020810190506100f4565b50505050905090810190601f16801561013c5780820380516001836020036101000a031916815260200191505b509250505060405180910390f35b8060009080519060200190610160929190610202565b5050565b60008054600181600116156101000203166002900480601f0160208091040260200160405190810160405280929190818152602001828054600181600116156101000203166002900480156101fa5780601f106101cf576101008083540402835291602001916101fa565b820191906000526020600020905b8154815290600101906020018083116101dd57829003601f168201915b505050505081565b828054600181600116156101000203166002900490600052602060002090601f016020900481019282601f1061024357805160ff1916838001178555610271565b82800160010185558215610271579182015b82811115610270578251825591602001919060010190610255565b5b50905061027e9190610282565b5090565b6102a491905b808211156102a0576000816000905550600101610288565b5090565b905600a165627a7a72305820c5bfdaa88356d2b08cd18ca97ed7fe2f4c9e525ba9005ad83c0dd932d9cc7a3f0029",
  "source": "pragma solidity ^0.4.24;\n\ncontract SimpleStorage {\n  string public data = \"Hello World\";\n\n  function set(string x) public {\n    data = x;\n  }\n}",
  "sourcePath": "/home/josh/projects/Seathereum/truffle/contracts/SimpleStorage.sol",
  "compiler": {
    "name": "solc",
    "version": "0.4.24+commit.e67f0147.Emscripten.clang"
  },
  "schemaVersion": "2.0.1",
  "updatedAt": "2019-01-10T01:02:06.352Z"
}